S01700006F70647261636874656E5765656B322E7372656327
S113000045C000006AC0000073C0000054C0000076
S113001052C0000050C000004EC000004CC00000A0
S11300204AC0000048C0000046C0000044C00000B0
S113003042C0000040C000003EC000003CC00000C0
S11300403AC0000038C0000036C0000034C00000D0
S113005032C0000030C000002EC000002CC00000E0
S11300602AC0000028C0000026C0000024C00000F0
S113007022C0000020C000001EC000001CC0000000
S11300801AC0000018C0000016C0000011241FBED2
S1130090CFEFD0E1DEBFCDBF11E0A0E0B1E0E2E6FA
S11300A0F1E000E00BBF02C007900D92A234B1074B
S11300B0D9F754D054C0A4CF181619066CF420E014
S11300C030E0E9EFF0E03197F1F700C000002F5F76
S11300D03F4F82179307A9F708951F920F920FB607
S11300E00F921124959A0F900FBE0F901F901895A0
S11300F01F920F920FB60F92112495980F900FBE76
S11301000F901F901895CF93DF93CDB7DEB7C254ED
S1130110D1090FB6F894DEBF0FBECDBF82E4E0E094
S1130120F1E0DE01119601900D928A95E1F78FEFCF
S11301308ABB8D819E814497E0F78E010F5F1F4F2C
S1130140F80180818BBB88E893E1B6DF0A5F1F4F1B
S1130150F80184819581449798F3EBCFD4DFF89428
S1050160FFCFCB
S11301623F00000000000600000001005B000000E8
S113017202004F00000003006600000004006D004E
S1130182000005007D0000000600070000000700D3
S11301927F00000008006F000000090080000000DA
S10501A20A004D
S9030000FC
