:1000000045C0000073C00000A0C0000047C0000051
:1000100045C0000043C0000041C000003FC00000D8
:100020003DC000003BC0000039C0000037C00000E8
:1000300035C0000033C0000031C000002FC00000F8
:100040002DC000002BC0000029C0000027C0000008
:1000500025C0000023C0000021C000001FC0000018
:100060001DC000001BC0000019C0000017C0000028
:1000700015C0000013C0000011C000000FC0000038
:100080000DC000000BC0000009C0000011241FBEFD
:10009000CFEFD0E1DEBFCDBF13D086C0B1CF1816F1
:1000A00019066CF420E030E0EFECF7E03197F1F75F
:1000B00000C000002F5F3F4F82179307A9F70895F4
:1000C00080EF81BBEAE6F0E080818B60808389B7B6
:1000D000836089BF8FEF8BBB88E08ABB789482B343
:1000E000805882BB84EF91E0DADFF9CF1F920F9244
:1000F0000FB60F9211240BB60F922F933F934F938D
:100100005F936F937F938F939F93AF93BF93EF937F
:10011000FF938AB3813019F08AB386958ABB80E257
:100120009EE4BDDFFF91EF91BF91AF919F918F91C1
:100130007F916F915F914F913F912F910F900BBEE7
:100140000F900FBE0F901F9018951F920F920FB631
:100150000F9211240BB60F922F933F934F935F93FF
:100160006F937F938F939F93AF93BF93EF93FF937F
:100170008AB3803819F08AB3880F8ABB80E29EE484
:100180008EDFFF91EF91BF91AF919F918F917F9102
:100190006F915F914F913F912F910F900BBE0F90F8
:0C01A0000FBE0F901F901895F894FFCF31
:00000001FF
