:1000000045C000008EC000005EC0000054C000006B
:1000100052C0000050C000004EC000004CC00000A4
:100020004AC0000048C0000046C0000044C00000B4
:1000300042C0000040C000003EC000003CC00000C4
:100040003AC0000038C0000036C0000034C00000D4
:1000500032C0000030C000002EC000002CC00000E4
:100060002AC0000028C0000026C0000024C00000F4
:1000700022C0000020C000001EC000001CC0000004
:100080001AC0000018C0000016C0000011241FBED6
:10009000CFEFD0E1DEBFCDBF11E0A0E0B1E0E0E006
:1000A000F2E000E00BBF02C007900D92AC31B10747
:1000B000D9F799D0A3C0A4CF8BB3803819F08BB3F4
:1000C000880F8BBB08951F920F920FB60F921124C9
:1000D0000BB60F922F933F934F935F936F937F9342
:1000E0008F939F93AF93BF93EF93FF93E5DFFF91C0
:1000F000EF91BF91AF919F918F917F916F915F91A0
:100100004F913F912F910F900BBE0F900FBE0F900C
:100110001F9018958BB3813019F08BB386958BBBEC
:1001200008951F920F920FB60F9211240BB60F92E3
:100130002F933F934F935F936F937F938F939F93EF
:10014000AF93BF93EF93FF93E5DFFF91EF91BF91E3
:10015000AF919F918F917F916F915F914F913F915F
:100160002F910F900BBE0F900FBE0F901F90189500
:10017000181619066CF420E030E0EFECF7E0319748
:10018000F1F700C000002F5F3F4F82179307A9F7D8
:100190000895CF93DF93CDB7DEB76B970FB6F89482
:1001A000DEBF0FBECDBF8BE1E0E0F1E0DE011196D6
:1001B00001900D928A95E1F78FEF8ABB8A819B812E
:1001C000892BE1F38E010F5F1F4FF80180818BBBFC
:1001D00081819281CDDF0D5F1F4FF8018181928176
:1001E000892B99F7EBCF80EF81BBEAE6F0E08081C5
:1001F0008B60808389B7836089BFCBDFF894FFCFA2
:100200002150000350004228005028001850000CD4
:0C0210005000442800602800000000009E
:00000001FF
