:1000000045C000004BC0000049C0000047C00000D0
:1000100045C0000043C0000041C000003FC00000D8
:100020003DC000003BC0000039C0000037C00000E8
:1000300035C0000033C0000031C000002FC00000F8
:100040002DC000002BC0000029C0000027C0000008
:1000500025C0000023C0000021C000001FC0000018
:100060001DC000001BC0000019C0000017C0000028
:1000700015C0000013C0000011C000000FC0000038
:100080000DC000000BC0000009C0000011241FBEFD
:10009000CFEFD0E1DEBFCDBFC2D005C1B1CF1816C2
:1000A00019066CF420E030E0E9EFF0E03197F1F769
:1000B00000C000002F5F3F4F82179307A9F70895F4
:1000C0008FEF87BBBB98C09A82E58DB908958FB931
:1000D000779BFECF089598B321E030E002C0220F55
:1000E000331F8A95E2F72095292328BB089598B3FA
:1000F00021E030E002C0220F331F8A95E2F7292B5E
:1001000028BB089580E0E7DF89E0E1DF8FEFDFDFE4
:1001100080E0EDDF80E0DFDF8AE0D9DF8FE0D7DF4E
:1001200080E0E5DF80E0D7DF8BE0D1DF83E0CFDF69
:1001300080E0DDDF80E0CFDF8CE0C9DF81E0C7DF7A
:1001400080E0D5CF0895CF93DF93D82FC62F80E0DE
:10015000C2DF8D2FBCDF8C2FBADF80E0C8DFDF91DC
:10016000CF910895FF920F931F93CF93DF939C013C
:10017000992334F5FC01992324F4EE27FF27E81B8B
:10018000F90B0AE010E0CF01B80166D09C01482FBE
:10019000C4E6D0E0CF01BE015FD0821B930BB80153
:1001A0005BD08B01F62ECF0168EE73E055D0801B3B
:1001B000910B821B930BBE014FD0C62FDAE01DC0FE
:1001C0000AE010E0B80148D0FC01482FC4E6D0E0B6
:1001D000C901BE0141D08E1B9F0BB8013DD08B01E0
:1001E000F62EC90168EE73E037D0801B910B8E1B91
:1001F0009F0BBE0131D0C62FDFE0642F81E0A3DF6B
:100200006F2D82E0A0DF6C2F83E09DDF6D2F84E0F7
:100210009ADFDF91CF911F910F91FF900895CF93B7
:10022000DF9381E087BB4CDF6DDF88EE93E037DF43
:10023000C2E3D0E0CE0196DF88EE93E030DF219775
:10024000C8318CEFD807B1F788EE93E028DF81E062
:1002500090E0DF91CF91089597FB072E16F400945C
:1002600006D077FD08D00BD007FC05D03EF4909562
:1002700081959F4F0895709561957F4F0895AA1BB2
:10028000BB1B51E107C0AA1FBB1FA617B70710F081
:10029000A61BB70B881F991F5A95A9F780959095B3
:0A02A000BC01CD010895F894FFCFD2
:00000001FF
