:1000000045C0000058C0000056C0000054C00000A9
:1000100052C0000050C000004EC000004CC00000A4
:100020004AC0000048C0000046C0000044C00000B4
:1000300042C0000040C000003EC000003CC00000C4
:100040003AC0000038C0000036C0000034C00000D4
:1000500032C0000030C000002EC000002CC00000E4
:100060002AC0000028C0000026C0000024C00000F4
:1000700022C0000020C000001EC000001CC0000004
:100080001AC0000018C0000016C0000011241FBED6
:10009000CFEFD0E1DEBFCDBF11E0A0E0B1E0E4E6FC
:1000A000F1E000E00BBF02C007900D92AE30B10747
:1000B000D9F743D055C0A4CFAB9A8FEC97E0019706
:1000C000F1F700C00000AB988FEC97E00197F1F7D3
:1000D00000C000000895CF938FEF84BB15BAC0E233
:1000E000C5BBEADFC5BBE8DF80E885BBE5DF15BA45
:1000F000E3DF80EF85BBE0DF15BADEDF80E685BB9E
:10010000DBDFCF910895CF93C82F85BBAA9AD4DFA8
:10011000C295C07FC5BBAA9ACFDFCF910895CF9378
:10012000DF93EC018881882329F02196ECDF899107
:100130008111FCCFDF91CF9108958FEF81BBCBDF91
:1001400080E091E0ECDF82B3805882BB2FEF89E63C
:1001500098E1215080409040E1F700C00000F3CFCB
:04016000F894FFCF41
:0E0164005965646920796F752061726500002D
:00000001FF
