S01700006F70647261636874656E5765656B332E7372656326
S113000045C0000060C000005EC000005CC000008D
S11300105AC0000058C0000056C0000054C0000080
S113002052C000005CC000004EC000004CC0000084
S11300304AC0000048C0000046C0000044C00000A0
S113004042C0000040C000003EC000003CC00000B0
S11300503AC0000038C0000036C0000034C00000C0
S113006032C0000030C000002EC000002CC00000D0
S11300702AC0000028C0000026C0000024C00000E0
S113008022C0000020C000001EC0000011241FBEBA
S1130090CFEFD0E1DEBFCDBF11E0A0E0B1E0E8E8F2
S11300A0F1E000E00BBF02C007900D92A030B10751
S11300B0D9F721E0A0E0B1E001C01D92A330B2075E
S11300C0E1F75FD05FC09CCF8AEF83BD87B78068BC
S11300D087BF8FB780688FBF8BE085BD08951F925F
S11300E00F920FB60F9211248F939F938091010169
S11300F0909102010196909302018093010189314C
S1130100910579F48091000181111AC081E08093F6
S1130110000182B3805882BB109202011092010147
S11301200FC00F9769F480910001813049F4109257
S1130130000182B3805882BB109202011092010127
S11301409F918F910F900FBE0F901F9018951816C6
S113015019066CF420E030E0EFECF7E03197F1F7AA
S113016000C000002F5F3F4F82179307A9F708953F
S11301708BE085BD8FEF81BBA7DF88EE93E0E7DFDF
S10B0180FCCFF6DFF894FFCF79
S9030000FC
