S01700006F70647261636874656E5765656B332E7372656326
S113000045C0000058C0000056C0000054C00000A5
S113001052C0000050C000004EC000004CC00000A0
S11300204AC0000048C0000046C0000044C00000B0
S113003042C0000040C000003EC000003CC00000C0
S11300403AC0000038C0000036C0000034C00000D0
S113005032C0000030C000002EC000002CC00000E0
S11300602AC0000028C0000026C0000024C00000F0
S113007022C0000020C000001EC000001CC0000000
S11300801AC0000018C0000016C0000011241FBED2
S1130090CFEFD0E1DEBFCDBF11E0A0E0B1E0EAE9EF
S11300A0F2E000E00BBF02C007900D92AC30B10744
S11300B0D9F7EFD0F0C0A4CF982F907F95BBAB9A1F
S11300C0EFE4F3EC3197F1F700C0000094E095BB46
S11300D0F0E18F9FC001112485BBAB9A8FE493ECB0
S11300E00197F1F700C0000015BA08958FEF84BBA3
S11300F08FE493EC0197F1F700C0000082E090E0F8
S1130100DBDF8FE493EC0197F1F700C0000088E295
S113011090E0D2DF8FE493EC0197F1F700C0000088
S11301208CE090E0C9DF8FE493EC0197F1F700C015
S1130130000086E090E0C0DF8FE493EC0197F1F7D4
S113014000C0000080E890E0B7DF8FE493EC0197F3
S1130150F1F700C0000081E090E0AEDF8FE493ECA3
S11301600197F1F700C000000895982F907F95BB88
S113017095B39C6095BBEFE4F3EC3197F1F700C0C5
S1130180000094E095BBF0E18F9FC001112485BB72
S113019085B38C6085BB8FE493EC0197F1F700C0C5
S11301A0000015BA0895803191051CF0805584CF64
S11301B00895805881CF0895EF92FF920F931F9373
S11301C0CF93DF93EC0162307105B9F480EC74DFF6
S11301D07E0100E010E006C0F70181917F01C5DFD8
S11301E00F5F1F4FFE0101900020E9F73197EC1BD0
S11301F0FD0B0E171F0780F316C080E85DDF7E013C
S113020000E010E006C0F70181917F01AEDF0F5FCF
S11302101F4FFE0101900020E9F73197EC1BFD0B05
S11302200E171F0780F3DF91CF911F910F91FF905D
S1130230EF900895CF93DF93CDB7DEB72B970FB62A
S1130240F894DEBF0FBECDBF8BE0E0E0F1E0DE014D
S1130250119601900D928A95E1F748DF8FE493ECB3
S11302600197F1F700C0000081E026DF61E070E053
S1130270CE010196A1DF84E190E095DF81E475DF92
S11302802B960FB6F894DEBF0FBECDBFDF91CF9192
S10D02900895D0DFFFCFF894FFCFEC
S10F029A706F73697469652032300000D5
S9030000FC
