S01700006F70647261636874656E5765656B312E7372656328
S113000045C0000058C0000056C0000054C00000A5
S113001052C0000050C000004EC000004CC00000A0
S11300204AC0000048C0000046C0000044C00000B0
S113003042C0000040C000003EC000003CC00000C0
S11300403AC0000038C0000036C0000034C00000D0
S113005032C0000030C000002EC000002CC00000E0
S11300602AC0000028C0000026C0000024C00000F0
S113007022C0000020C000001EC000001CC0000000
S11300801AC0000018C0000016C0000011241FBED2
S1130090CFEFD0E1DEBFCDBF11E0A0E0B1E0EEE5EF
S11300A0F1E000E00BBF02C007900D92A030B10751
S11300B0D9F752D052C0A4CF83309105C1F034F4A3
S11300C08130910551F0029769F0089585309105CA
S11300D0C1F094F00697D1F0089581E085BB8BEFD1
S11300E084BB089582E085BB8BEF84BB089582E0D6
S11300F085BB8EEF84BB089584E085BB8EEF84BB03
S1130100089584E085BB8DEF84BB089581E085BBB1
S11301108DEF84BB0895181619066CF420E030E0C6
S1130120EFECF7E03197F1F700C000002F5F3F4F8D
S113013082179307A9F7089581E090E0BDDFC2E03C
S113014001C0C1E084EF91E0E6DF8C2F90E0B4DFE2
S1110150CC0FC034B9F7F5CFEFDFF894FFCF32
S9030000FC
